{
  "_format": "hh-sol-artifact-1",
  "contractName": "Create",
  "sourceName": "contracts/VotingContract.sol",
  "abi": [
    {
      "inputs": [],
      "stateMutability": "nonpayable",
      "type": "constructor"
    },
    {
      "anonymous": false,
      "inputs": [
        {
          "indexed": true,
          "internalType": "uint256",
          "name": "voterId",
          "type": "uint256"
        },
        {
          "indexed": false,
          "internalType": "string",
          "name": "voter_name",
          "type": "string"
        },
        {
          "indexed": false,
          "internalType": "string",
          "name": "voter_image",
          "type": "string"
        },
        {
          "indexed": false,
          "internalType": "address",
          "name": "voter_address",
          "type": "address"
        },
        {
          "indexed": false,
          "internalType": "uint256",
          "name": "voter_allowed",
          "type": "uint256"
        },
        {
          "indexed": false,
          "internalType": "bool",
          "name": "voter_voted",
          "type": "bool"
        },
        {
          "indexed": false,
          "internalType": "uint256",
          "name": "voter_vote",
          "type": "uint256"
        },
        {
          "indexed": false,
          "internalType": "string",
          "name": "voter_ipfs",
          "type": "string"
        }
      ],
      "name": "VoterCreated",
      "type": "event"
    },
    {
      "anonymous": false,
      "inputs": [
        {
          "indexed": true,
          "internalType": "uint256",
          "name": "candidateId",
          "type": "uint256"
        },
        {
          "indexed": false,
          "internalType": "string",
          "name": "age",
          "type": "string"
        },
        {
          "indexed": false,
          "internalType": "string",
          "name": "name",
          "type": "string"
        },
        {
          "indexed": false,
          "internalType": "string",
          "name": "image",
          "type": "string"
        },
        {
          "indexed": false,
          "internalType": "uint256",
          "name": "voteCount",
          "type": "uint256"
        },
        {
          "indexed": false,
          "internalType": "address",
          "name": "_address",
          "type": "address"
        },
        {
          "indexed": false,
          "internalType": "string",
          "name": "ipfs",
          "type": "string"
        }
      ],
      "name": "candidateCreate",
      "type": "event"
    },
    {
      "inputs": [],
      "name": "_candidateId",
      "outputs": [
        {
          "internalType": "uint256",
          "name": "",
          "type": "uint256"
        }
      ],
      "stateMutability": "view",
      "type": "function"
    },
    {
      "inputs": [],
      "name": "_voterId",
      "outputs": [
        {
          "internalType": "uint256",
          "name": "",
          "type": "uint256"
        }
      ],
      "stateMutability": "view",
      "type": "function"
    },
    {
      "inputs": [
        {
          "internalType": "uint256",
          "name": "",
          "type": "uint256"
        }
      ],
      "name": "candidateAddress",
      "outputs": [
        {
          "internalType": "address",
          "name": "",
          "type": "address"
        }
      ],
      "stateMutability": "view",
      "type": "function"
    },
    {
      "inputs": [
        {
          "internalType": "address",
          "name": "",
          "type": "address"
        }
      ],
      "name": "candidates",
      "outputs": [
        {
          "internalType": "uint256",
          "name": "candidateId",
          "type": "uint256"
        },
        {
          "internalType": "string",
          "name": "age",
          "type": "string"
        },
        {
          "internalType": "string",
          "name": "name",
          "type": "string"
        },
        {
          "internalType": "string",
          "name": "image",
          "type": "string"
        },
        {
          "internalType": "uint256",
          "name": "voteCount",
          "type": "uint256"
        },
        {
          "internalType": "address",
          "name": "_address",
          "type": "address"
        },
        {
          "internalType": "string",
          "name": "ipfs",
          "type": "string"
        }
      ],
      "stateMutability": "view",
      "type": "function"
    },
    {
      "inputs": [
        {
          "internalType": "address",
          "name": "_address",
          "type": "address"
        }
      ],
      "name": "getCandiadteData",
      "outputs": [
        {
          "internalType": "string",
          "name": "",
          "type": "string"
        },
        {
          "internalType": "string",
          "name": "",
          "type": "string"
        },
        {
          "internalType": "uint256",
          "name": "",
          "type": "uint256"
        },
        {
          "internalType": "string",
          "name": "",
          "type": "string"
        },
        {
          "internalType": "uint256",
          "name": "",
          "type": "uint256"
        },
        {
          "internalType": "string",
          "name": "",
          "type": "string"
        },
        {
          "internalType": "address",
          "name": "",
          "type": "address"
        }
      ],
      "stateMutability": "view",
      "type": "function"
    },
    {
      "inputs": [],
      "name": "getCandidateLength",
      "outputs": [
        {
          "internalType": "uint256",
          "name": "",
          "type": "uint256"
        }
      ],
      "stateMutability": "view",
      "type": "function"
    },
    {
      "inputs": [],
      "name": "getCandidates",
      "outputs": [
        {
          "internalType": "address[]",
          "name": "",
          "type": "address[]"
        }
      ],
      "stateMutability": "view",
      "type": "function"
    },
    {
      "inputs": [],
      "name": "getVotedVoterList",
      "outputs": [
        {
          "internalType": "address[]",
          "name": "",
          "type": "address[]"
        }
      ],
      "stateMutability": "view",
      "type": "function"
    },
    {
      "inputs": [],
      "name": "getVoterLength",
      "outputs": [
        {
          "internalType": "uint256",
          "name": "",
          "type": "uint256"
        }
      ],
      "stateMutability": "view",
      "type": "function"
    },
    {
      "inputs": [],
      "name": "getVoterList",
      "outputs": [
        {
          "internalType": "address[]",
          "name": "",
          "type": "address[]"
        }
      ],
      "stateMutability": "view",
      "type": "function"
    },
    {
      "inputs": [
        {
          "internalType": "address",
          "name": "_address",
          "type": "address"
        }
      ],
      "name": "getVoterdata",
      "outputs": [
        {
          "internalType": "uint256",
          "name": "",
          "type": "uint256"
        },
        {
          "internalType": "string",
          "name": "",
          "type": "string"
        },
        {
          "internalType": "string",
          "name": "",
          "type": "string"
        },
        {
          "internalType": "address",
          "name": "",
          "type": "address"
        },
        {
          "internalType": "string",
          "name": "",
          "type": "string"
        },
        {
          "internalType": "uint256",
          "name": "",
          "type": "uint256"
        },
        {
          "internalType": "bool",
          "name": "",
          "type": "bool"
        }
      ],
      "stateMutability": "view",
      "type": "function"
    },
    {
      "inputs": [
        {
          "internalType": "address",
          "name": "_address",
          "type": "address"
        },
        {
          "internalType": "string",
          "name": "_age",
          "type": "string"
        },
        {
          "internalType": "string",
          "name": "_name",
          "type": "string"
        },
        {
          "internalType": "string",
          "name": "_image",
          "type": "string"
        },
        {
          "internalType": "string",
          "name": "_ipfs",
          "type": "string"
        }
      ],
      "name": "setCandidate",
      "outputs": [],
      "stateMutability": "nonpayable",
      "type": "function"
    },
    {
      "inputs": [
        {
          "internalType": "address",
          "name": "_candidateAddress",
          "type": "address"
        },
        {
          "internalType": "uint256",
          "name": "_candidateVoteId",
          "type": "uint256"
        }
      ],
      "name": "vote",
      "outputs": [],
      "stateMutability": "nonpayable",
      "type": "function"
    },
    {
      "inputs": [
        {
          "internalType": "uint256",
          "name": "",
          "type": "uint256"
        }
      ],
      "name": "votedVoters",
      "outputs": [
        {
          "internalType": "address",
          "name": "",
          "type": "address"
        }
      ],
      "stateMutability": "view",
      "type": "function"
    },
    {
      "inputs": [
        {
          "internalType": "address",
          "name": "_address",
          "type": "address"
        },
        {
          "internalType": "string",
          "name": "_name",
          "type": "string"
        },
        {
          "internalType": "string",
          "name": "_image",
          "type": "string"
        },
        {
          "internalType": "string",
          "name": "_ipfs",
          "type": "string"
        }
      ],
      "name": "voterRight",
      "outputs": [],
      "stateMutability": "nonpayable",
      "type": "function"
    },
    {
      "inputs": [
        {
          "internalType": "address",
          "name": "",
          "type": "address"
        }
      ],
      "name": "voters",
      "outputs": [
        {
          "internalType": "uint256",
          "name": "voterId",
          "type": "uint256"
        },
        {
          "internalType": "string",
          "name": "voter_name",
          "type": "string"
        },
        {
          "internalType": "string",
          "name": "voter_image",
          "type": "string"
        },
        {
          "internalType": "address",
          "name": "voter_address",
          "type": "address"
        },
        {
          "internalType": "uint256",
          "name": "voter_allowed",
          "type": "uint256"
        },
        {
          "internalType": "bool",
          "name": "voter_voted",
          "type": "bool"
        },
        {
          "internalType": "uint256",
          "name": "voter_vote",
          "type": "uint256"
        },
        {
          "internalType": "string",
          "name": "voter_ipfs",
          "type": "string"
        }
      ],
      "stateMutability": "view",
      "type": "function"
    },
    {
      "inputs": [
        {
          "internalType": "uint256",
          "name": "",
          "type": "uint256"
        }
      ],
      "name": "votersAddress",
      "outputs": [
        {
          "internalType": "address",
          "name": "",
          "type": "address"
        }
      ],
      "stateMutability": "view",
      "type": "function"
    },
    {
      "inputs": [],
      "name": "votingOrganizer",
      "outputs": [
        {
          "internalType": "address",
          "name": "",
          "type": "address"
        }
      ],
      "stateMutability": "view",
      "type": "function"
    }
  ],
  "bytecode": "0x608060405234801561001057600080fd5b5033600260006101000a81548173ffffffffffffffffffffffffffffffffffffffff021916908373ffffffffffffffffffffffffffffffffffffffff1602179055506128da806100616000396000f3fe608060405234801561001057600080fd5b50600436106101165760003560e01c80638ab66a90116100a2578063b28d92ae11610071578063b28d92ae1461031c578063b9be31521461033a578063c5036fd414610358578063c91ec7121461038e578063f7522a83146103aa57610116565b80638ab66a90146102735780638e945685146102a9578063a3ec138d146102c7578063a7388967146102fe57610116565b806343242daa116100e957806343242daa146101a35780635cc48aa7146101d35780635f74bbde146101f157806366f34c551461020d5780637831ffb31461024357610116565b80630361419e1461011b57806305ad45a41461013757806306a49fce146101555780633a88251a14610173575b600080fd5b61013560048036038101906101309190611b8d565b6103c8565b005b61013f61067b565b60405161014c9190611c61565b60405180910390f35b61015d610688565b60405161016a9190611d3a565b60405180910390f35b61018d60048036038101906101889190611d88565b610716565b60405161019a9190611dc4565b60405180910390f35b6101bd60048036038101906101b89190611d88565b610755565b6040516101ca9190611dc4565b60405180910390f35b6101db610794565b6040516101e89190611dc4565b60405180910390f35b61020b60048036038101906102069190611ddf565b6107ba565b005b61022760048036038101906102229190611e1f565b610981565b60405161023a9796959493929190611ecb565b60405180910390f35b61025d60048036038101906102589190611d88565b610dc8565b60405161026a9190611dc4565b60405180910390f35b61028d60048036038101906102889190611e1f565b610e07565b6040516102a09796959493929190611f56565b60405180910390f35b6102b1611089565b6040516102be9190611d3a565b60405180910390f35b6102e160048036038101906102dc9190611e1f565b611117565b6040516102f5989796959493929190611ffc565b60405180910390f35b610306611324565b6040516103139190611c61565b60405180910390f35b61032461132a565b6040516103319190611d3a565b60405180910390f35b6103426113b8565b60405161034f9190611c61565b60405180910390f35b610372600480360381019061036d9190611e1f565b6113be565b604051610385979695949392919061208f565b60405180910390f35b6103a860048036038101906103a39190612113565b611786565b005b6103b26119c8565b6040516103bf9190611c61565b60405180910390f35b3373ffffffffffffffffffffffffffffffffffffffff16600260009054906101000a900473ffffffffffffffffffffffffffffffffffffffff1673ffffffffffffffffffffffffffffffffffffffff1614610458576040517f08c379a000000000000000000000000000000000000000000000000000000000815260040161044f9061224a565b60405180910390fd5b60008081548092919061046a90612299565b91905055506000805490506000600760008773ffffffffffffffffffffffffffffffffffffffff1673ffffffffffffffffffffffffffffffffffffffff168152602001908152602001600020905060008160040154146104ff576040517f08c379a00000000000000000000000000000000000000000000000000000000081526004016104f69061232d565b60405180910390fd5b600181600401819055508381600201908161051a9190612559565b50858160030160006101000a81548173ffffffffffffffffffffffffffffffffffffffff021916908373ffffffffffffffffffffffffffffffffffffffff1602179055508481600101908161056f9190612559565b508181600001819055506103e8816006018190555060008160050160006101000a81548160ff021916908315150217905550828160070190816105b29190612559565b506006869080600181540180825580915050600190039060005260206000200160009091909190916101000a81548173ffffffffffffffffffffffffffffffffffffffff021916908373ffffffffffffffffffffffffffffffffffffffff160217905550817ff5f39971dd62d9929e3a9feaa6bb77fe7c7da0001babff8a65a7e51ad0201c1986868985600401548660050160009054906101000a900460ff1687600601548a60405161066b979695949392919061262b565b60405180910390a2505050505050565b6000600680549050905090565b6060600380548060200260200160405190810160405280929190818152602001828054801561070c57602002820191906000526020600020905b8160009054906101000a900473ffffffffffffffffffffffffffffffffffffffff1673ffffffffffffffffffffffffffffffffffffffff16815260200190600101908083116106c2575b5050505050905090565b6003818154811061072657600080fd5b906000526020600020016000915054906101000a900473ffffffffffffffffffffffffffffffffffffffff1681565b6006818154811061076557600080fd5b906000526020600020016000915054906101000a900473ffffffffffffffffffffffffffffffffffffffff1681565b600260009054906101000a900473ffffffffffffffffffffffffffffffffffffffff1681565b6000600760003373ffffffffffffffffffffffffffffffffffffffff1673ffffffffffffffffffffffffffffffffffffffff16815260200190815260200160002090506000816004015403610844576040517f08c379a000000000000000000000000000000000000000000000000000000000815260040161083b906126fb565b60405180910390fd5b8060050160009054906101000a900460ff1615610896576040517f08c379a000000000000000000000000000000000000000000000000000000000815260040161088d90612767565b60405180910390fd5b60018160050160006101000a81548160ff0219169083151502179055508181600601819055506005339080600181540180825580915050600190039060005260206000200160009091909190916101000a81548173ffffffffffffffffffffffffffffffffffffffff021916908373ffffffffffffffffffffffffffffffffffffffff1602179055508060040154600460008573ffffffffffffffffffffffffffffffffffffffff1673ffffffffffffffffffffffffffffffffffffffff16815260200190815260200160002060040160008282546109759190612787565b92505081905550505050565b60608060006060600060606000600460008973ffffffffffffffffffffffffffffffffffffffff1673ffffffffffffffffffffffffffffffffffffffff168152602001908152602001600020600101600460008a73ffffffffffffffffffffffffffffffffffffffff1673ffffffffffffffffffffffffffffffffffffffff168152602001908152602001600020600201600460008b73ffffffffffffffffffffffffffffffffffffffff1673ffffffffffffffffffffffffffffffffffffffff16815260200190815260200160002060000154600460008c73ffffffffffffffffffffffffffffffffffffffff1673ffffffffffffffffffffffffffffffffffffffff168152602001908152602001600020600301600460008d73ffffffffffffffffffffffffffffffffffffffff1673ffffffffffffffffffffffffffffffffffffffff16815260200190815260200160002060040154600460008e73ffffffffffffffffffffffffffffffffffffffff1673ffffffffffffffffffffffffffffffffffffffff168152602001908152602001600020600601600460008f73ffffffffffffffffffffffffffffffffffffffff1673ffffffffffffffffffffffffffffffffffffffff16815260200190815260200160002060050160009054906101000a900473ffffffffffffffffffffffffffffffffffffffff16868054610b8b9061237c565b80601f0160208091040260200160405190810160405280929190818152602001828054610bb79061237c565b8015610c045780601f10610bd957610100808354040283529160200191610c04565b820191906000526020600020905b815481529060010190602001808311610be757829003601f168201915b50505050509650858054610c179061237c565b80601f0160208091040260200160405190810160405280929190818152602001828054610c439061237c565b8015610c905780601f10610c6557610100808354040283529160200191610c90565b820191906000526020600020905b815481529060010190602001808311610c7357829003601f168201915b50505050509550838054610ca39061237c565b80601f0160208091040260200160405190810160405280929190818152602001828054610ccf9061237c565b8015610d1c5780601f10610cf157610100808354040283529160200191610d1c565b820191906000526020600020905b815481529060010190602001808311610cff57829003601f168201915b50505050509350818054610d2f9061237c565b80601f0160208091040260200160405190810160405280929190818152602001828054610d5b9061237c565b8015610da85780601f10610d7d57610100808354040283529160200191610da8565b820191906000526020600020905b815481529060010190602001808311610d8b57829003601f168201915b505050505091509650965096509650965096509650919395979092949650565b60058181548110610dd857600080fd5b906000526020600020016000915054906101000a900473ffffffffffffffffffffffffffffffffffffffff1681565b6004602052806000526040600020600091509050806000015490806001018054610e309061237c565b80601f0160208091040260200160405190810160405280929190818152602001828054610e5c9061237c565b8015610ea95780601f10610e7e57610100808354040283529160200191610ea9565b820191906000526020600020905b815481529060010190602001808311610e8c57829003601f168201915b505050505090806002018054610ebe9061237c565b80601f0160208091040260200160405190810160405280929190818152602001828054610eea9061237c565b8015610f375780601f10610f0c57610100808354040283529160200191610f37565b820191906000526020600020905b815481529060010190602001808311610f1a57829003601f168201915b505050505090806003018054610f4c9061237c565b80601f0160208091040260200160405190810160405280929190818152602001828054610f789061237c565b8015610fc55780601f10610f9a57610100808354040283529160200191610fc5565b820191906000526020600020905b815481529060010190602001808311610fa857829003601f168201915b5050505050908060040154908060050160009054906101000a900473ffffffffffffffffffffffffffffffffffffffff16908060060180546110069061237c565b80601f01602080910402602001604051908101604052809291908181526020018280546110329061237c565b801561107f5780601f106110545761010080835404028352916020019161107f565b820191906000526020600020905b81548152906001019060200180831161106257829003601f168201915b5050505050905087565b6060600580548060200260200160405190810160405280929190818152602001828054801561110d57602002820191906000526020600020905b8160009054906101000a900473ffffffffffffffffffffffffffffffffffffffff1673ffffffffffffffffffffffffffffffffffffffff16815260200190600101908083116110c3575b5050505050905090565b60076020528060005260406000206000915090508060000154908060010180546111409061237c565b80601f016020809104026020016040519081016040528092919081815260200182805461116c9061237c565b80156111b95780601f1061118e576101008083540402835291602001916111b9565b820191906000526020600020905b81548152906001019060200180831161119c57829003601f168201915b5050505050908060020180546111ce9061237c565b80601f01602080910402602001604051908101604052809291908181526020018280546111fa9061237c565b80156112475780601f1061121c57610100808354040283529160200191611247565b820191906000526020600020905b81548152906001019060200180831161122a57829003601f168201915b5050505050908060030160009054906101000a900473ffffffffffffffffffffffffffffffffffffffff16908060040154908060050160009054906101000a900460ff16908060060154908060070180546112a19061237c565b80601f01602080910402602001604051908101604052809291908181526020018280546112cd9061237c565b801561131a5780601f106112ef5761010080835404028352916020019161131a565b820191906000526020600020905b8154815290600101906020018083116112fd57829003601f168201915b5050505050905088565b60015481565b606060068054806020026020016040519081016040528092919081815260200182805480156113ae57602002820191906000526020600020905b8160009054906101000a900473ffffffffffffffffffffffffffffffffffffffff1673ffffffffffffffffffffffffffffffffffffffff1681526020019060010190808311611364575b5050505050905090565b60005481565b600060608060006060600080600760008973ffffffffffffffffffffffffffffffffffffffff1673ffffffffffffffffffffffffffffffffffffffff16815260200190815260200160002060000154600760008a73ffffffffffffffffffffffffffffffffffffffff1673ffffffffffffffffffffffffffffffffffffffff168152602001908152602001600020600101600760008b73ffffffffffffffffffffffffffffffffffffffff1673ffffffffffffffffffffffffffffffffffffffff168152602001908152602001600020600201600760008c73ffffffffffffffffffffffffffffffffffffffff1673ffffffffffffffffffffffffffffffffffffffff16815260200190815260200160002060030160009054906101000a900473ffffffffffffffffffffffffffffffffffffffff16600760008d73ffffffffffffffffffffffffffffffffffffffff1673ffffffffffffffffffffffffffffffffffffffff168152602001908152602001600020600701600760008e73ffffffffffffffffffffffffffffffffffffffff1673ffffffffffffffffffffffffffffffffffffffff16815260200190815260200160002060040154600760008f73ffffffffffffffffffffffffffffffffffffffff1673ffffffffffffffffffffffffffffffffffffffff16815260200190815260200160002060050160009054906101000a900460ff168580546115d59061237c565b80601f01602080910402602001604051908101604052809291908181526020018280546116019061237c565b801561164e5780601f106116235761010080835404028352916020019161164e565b820191906000526020600020905b81548152906001019060200180831161163157829003601f168201915b505050505095508480546116619061237c565b80601f016020809104026020016040519081016040528092919081815260200182805461168d9061237c565b80156116da5780601f106116af576101008083540402835291602001916116da565b820191906000526020600020905b8154815290600101906020018083116116bd57829003601f168201915b505050505094508280546116ed9061237c565b80601f01602080910402602001604051908101604052809291908181526020018280546117199061237c565b80156117665780601f1061173b57610100808354040283529160200191611766565b820191906000526020600020905b81548152906001019060200180831161174957829003601f168201915b505050505092509650965096509650965096509650919395979092949650565b3373ffffffffffffffffffffffffffffffffffffffff16600260009054906101000a900473ffffffffffffffffffffffffffffffffffffffff1673ffffffffffffffffffffffffffffffffffffffff1614611816576040517f08c379a000000000000000000000000000000000000000000000000000000000815260040161180d90612807565b60405180910390fd5b6001600081548092919061182990612299565b9190505550600060015490506000600460008873ffffffffffffffffffffffffffffffffffffffff1673ffffffffffffffffffffffffffffffffffffffff1681526020019081526020016000209050848160020190816118899190612559565b508581600101908161189b9190612559565b50818160000181905550838160030190816118b69190612559565b5060008160040181905550868160050160006101000a81548173ffffffffffffffffffffffffffffffffffffffff021916908373ffffffffffffffffffffffffffffffffffffffff160217905550828160060190816119159190612559565b506003879080600181540180825580915050600190039060005260206000200160009091909190916101000a81548173ffffffffffffffffffffffffffffffffffffffff021916908373ffffffffffffffffffffffffffffffffffffffff160217905550817f9c3377caaad8cf5294b4cace40440155609c39f917095c885c7e0eb22ebb506387878785600401548c896040516119b796959493929190612827565b60405180910390a250505050505050565b6000600380549050905090565b6000604051905090565b600080fd5b600080fd5b600073ffffffffffffffffffffffffffffffffffffffff82169050919050565b6000611a14826119e9565b9050919050565b611a2481611a09565b8114611a2f57600080fd5b50565b600081359050611a4181611a1b565b92915050565b600080fd5b600080fd5b6000601f19601f8301169050919050565b7f4e487b7100000000000000000000000000000000000000000000000000000000600052604160045260246000fd5b611a9a82611a51565b810181811067ffffffffffffffff82111715611ab957611ab8611a62565b5b80604052505050565b6000611acc6119d5565b9050611ad88282611a91565b919050565b600067ffffffffffffffff821115611af857611af7611a62565b5b611b0182611a51565b9050602081019050919050565b82818337600083830152505050565b6000611b30611b2b84611add565b611ac2565b905082815260208101848484011115611b4c57611b4b611a4c565b5b611b57848285611b0e565b509392505050565b600082601f830112611b7457611b73611a47565b5b8135611b84848260208601611b1d565b91505092915050565b60008060008060808587031215611ba757611ba66119df565b5b6000611bb587828801611a32565b945050602085013567ffffffffffffffff811115611bd657611bd56119e4565b5b611be287828801611b5f565b935050604085013567ffffffffffffffff811115611c0357611c026119e4565b5b611c0f87828801611b5f565b925050606085013567ffffffffffffffff811115611c3057611c2f6119e4565b5b611c3c87828801611b5f565b91505092959194509250565b6000819050919050565b611c5b81611c48565b82525050565b6000602082019050611c766000830184611c52565b92915050565b600081519050919050565b600082825260208201905092915050565b6000819050602082019050919050565b611cb181611a09565b82525050565b6000611cc38383611ca8565b60208301905092915050565b6000602082019050919050565b6000611ce782611c7c565b611cf18185611c87565b9350611cfc83611c98565b8060005b83811015611d2d578151611d148882611cb7565b9750611d1f83611ccf565b925050600181019050611d00565b5085935050505092915050565b60006020820190508181036000830152611d548184611cdc565b905092915050565b611d6581611c48565b8114611d7057600080fd5b50565b600081359050611d8281611d5c565b92915050565b600060208284031215611d9e57611d9d6119df565b5b6000611dac84828501611d73565b91505092915050565b611dbe81611a09565b82525050565b6000602082019050611dd96000830184611db5565b92915050565b60008060408385031215611df657611df56119df565b5b6000611e0485828601611a32565b9250506020611e1585828601611d73565b9150509250929050565b600060208284031215611e3557611e346119df565b5b6000611e4384828501611a32565b91505092915050565b600081519050919050565b600082825260208201905092915050565b60005b83811015611e86578082015181840152602081019050611e6b565b60008484015250505050565b6000611e9d82611e4c565b611ea78185611e57565b9350611eb7818560208601611e68565b611ec081611a51565b840191505092915050565b600060e0820190508181036000830152611ee5818a611e92565b90508181036020830152611ef98189611e92565b9050611f086040830188611c52565b8181036060830152611f1a8187611e92565b9050611f296080830186611c52565b81810360a0830152611f3b8185611e92565b9050611f4a60c0830184611db5565b98975050505050505050565b600060e082019050611f6b600083018a611c52565b8181036020830152611f7d8189611e92565b90508181036040830152611f918188611e92565b90508181036060830152611fa58187611e92565b9050611fb46080830186611c52565b611fc160a0830185611db5565b81810360c0830152611fd38184611e92565b905098975050505050505050565b60008115159050919050565b611ff681611fe1565b82525050565b600061010082019050612012600083018b611c52565b8181036020830152612024818a611e92565b905081810360408301526120388189611e92565b90506120476060830188611db5565b6120546080830187611c52565b61206160a0830186611fed565b61206e60c0830185611c52565b81810360e08301526120808184611e92565b90509998505050505050505050565b600060e0820190506120a4600083018a611c52565b81810360208301526120b68189611e92565b905081810360408301526120ca8188611e92565b90506120d96060830187611db5565b81810360808301526120eb8186611e92565b90506120fa60a0830185611c52565b61210760c0830184611fed565b98975050505050505050565b600080600080600060a0868803121561212f5761212e6119df565b5b600061213d88828901611a32565b955050602086013567ffffffffffffffff81111561215e5761215d6119e4565b5b61216a88828901611b5f565b945050604086013567ffffffffffffffff81111561218b5761218a6119e4565b5b61219788828901611b5f565b935050606086013567ffffffffffffffff8111156121b8576121b76119e4565b5b6121c488828901611b5f565b925050608086013567ffffffffffffffff8111156121e5576121e46119e4565b5b6121f188828901611b5f565b9150509295509295909350565b7f4f6e6c79204f7267616e697a65722063616e2063726561746520766f74650000600082015250565b6000612234601e83611e57565b915061223f826121fe565b602082019050919050565b6000602082019050818103600083015261226381612227565b9050919050565b7f4e487b7100000000000000000000000000000000000000000000000000000000600052601160045260246000fd5b60006122a482611c48565b91507fffffffffffffffffffffffffffffffffffffffffffffffffffffffffffffffff82036122d6576122d561226a565b5b600182019050919050565b7f416c726561647920526567697374657220666f7220566f746500000000000000600082015250565b6000612317601983611e57565b9150612322826122e1565b602082019050919050565b600060208201905081810360008301526123468161230a565b9050919050565b7f4e487b7100000000000000000000000000000000000000000000000000000000600052602260045260246000fd5b6000600282049050600182168061239457607f821691505b6020821081036123a7576123a661234d565b5b50919050565b60008190508160005260206000209050919050565b60006020601f8301049050919050565b600082821b905092915050565b60006008830261240f7fffffffffffffffffffffffffffffffffffffffffffffffffffffffffffffffff826123d2565b61241986836123d2565b95508019841693508086168417925050509392505050565b6000819050919050565b600061245661245161244c84611c48565b612431565b611c48565b9050919050565b6000819050919050565b6124708361243b565b61248461247c8261245d565b8484546123df565b825550505050565b600090565b61249961248c565b6124a4818484612467565b505050565b5b818110156124c8576124bd600082612491565b6001810190506124aa565b5050565b601f82111561250d576124de816123ad565b6124e7846123c2565b810160208510156124f6578190505b61250a612502856123c2565b8301826124a9565b50505b505050565b600082821c905092915050565b600061253060001984600802612512565b1980831691505092915050565b6000612549838361251f565b9150826002028217905092915050565b61256282611e4c565b67ffffffffffffffff81111561257b5761257a611a62565b5b612585825461237c565b6125908282856124cc565b600060209050601f8311600181146125c357600084156125b1578287015190505b6125bb858261253d565b865550612623565b601f1984166125d1866123ad565b60005b828110156125f9578489015182556001820191506020850194506020810190506125d4565b868310156126165784890151612612601f89168261251f565b8355505b6001600288020188555050505b505050505050565b600060e0820190508181036000830152612645818a611e92565b905081810360208301526126598189611e92565b90506126686040830188611db5565b6126756060830187611c52565b6126826080830186611fed565b61268f60a0830185611c52565b81810360c08301526126a18184611e92565b905098975050505050505050565b7f596f752068617665206e6f20726967687420746f20766f746500000000000000600082015250565b60006126e5601983611e57565b91506126f0826126af565b602082019050919050565b60006020820190508181036000830152612714816126d8565b9050919050565b7f596f75206861766520616c726561647920766f74656400000000000000000000600082015250565b6000612751601683611e57565b915061275c8261271b565b602082019050919050565b6000602082019050818103600083015261278081612744565b9050919050565b600061279282611c48565b915061279d83611c48565b92508282019050808211156127b5576127b461226a565b5b92915050565b7f4f6e6c79206f7267616e697a65722063616e2061636365737300000000000000600082015250565b60006127f1601983611e57565b91506127fc826127bb565b602082019050919050565b60006020820190508181036000830152612820816127e4565b9050919050565b600060c08201905081810360008301526128418189611e92565b905081810360208301526128558188611e92565b905081810360408301526128698187611e92565b90506128786060830186611c52565b6128856080830185611db5565b81810360a08301526128978184611e92565b905097965050505050505056fea2646970667358221220d63a631568797c73f012ca1c421e261c4129673f1414da5b84d7bb78ca8eced964736f6c63430008130033",
  "linkReferences": {},
  "deployedLinkReferences": {}
}